{
  "address": "0x6B39778aAde00b3a99e463934b614Aa41dFAF09b",
  "abi": [
    {
      "inputs": [
        {
          "internalType": "address",
          "name": "admin",
          "type": "address"
        },
        {
          "internalType": "contract IERC20",
          "name": "token_",
          "type": "address"
        },
        {
          "internalType": "uint256",
          "name": "rewardPerBlock_",
          "type": "uint256"
        }
      ],
      "stateMutability": "nonpayable",
      "type": "constructor"
    },
    {
      "anonymous": false,
      "inputs": [
        {
          "indexed": true,
          "internalType": "uint256",
          "name": "pid",
          "type": "uint256"
        },
        {
          "indexed": true,
          "internalType": "address",
          "name": "holder",
          "type": "address"
        },
        {
          "indexed": false,
          "internalType": "uint256",
          "name": "amount",
          "type": "uint256"
        }
      ],
      "name": "Claim",
      "type": "event"
    },
    {
      "anonymous": false,
      "inputs": [
        {
          "indexed": true,
          "internalType": "uint256",
          "name": "pid",
          "type": "uint256"
        }
      ],
      "name": "Close",
      "type": "event"
    },
    {
      "anonymous": false,
      "inputs": [
        {
          "indexed": true,
          "internalType": "uint256",
          "name": "pid",
          "type": "uint256"
        }
      ],
      "name": "Open",
      "type": "event"
    },
    {
      "anonymous": false,
      "inputs": [
        {
          "indexed": true,
          "internalType": "address",
          "name": "previousOwner",
          "type": "address"
        },
        {
          "indexed": true,
          "internalType": "address",
          "name": "newOwner",
          "type": "address"
        }
      ],
      "name": "OwnershipTransferred",
      "type": "event"
    },
    {
      "anonymous": false,
      "inputs": [
        {
          "indexed": true,
          "internalType": "uint256",
          "name": "pid",
          "type": "uint256"
        },
        {
          "indexed": true,
          "internalType": "address",
          "name": "holder",
          "type": "address"
        },
        {
          "indexed": false,
          "internalType": "string",
          "name": "node",
          "type": "string"
        }
      ],
      "name": "SetNode",
      "type": "event"
    },
    {
      "anonymous": false,
      "inputs": [
        {
          "indexed": false,
          "internalType": "uint256",
          "name": "rewardPerBlock",
          "type": "uint256"
        }
      ],
      "name": "SetRewardPerBlock",
      "type": "event"
    },
    {
      "anonymous": false,
      "inputs": [
        {
          "indexed": true,
          "internalType": "address",
          "name": "to",
          "type": "address"
        },
        {
          "indexed": false,
          "internalType": "uint256",
          "name": "amount",
          "type": "uint256"
        }
      ],
      "name": "Withdrawal",
      "type": "event"
    },
    {
      "inputs": [
        {
          "internalType": "uint256",
          "name": "pid",
          "type": "uint256"
        }
      ],
      "name": "accumulatedReward",
      "outputs": [
        {
          "internalType": "uint256",
          "name": "",
          "type": "uint256"
        }
      ],
      "stateMutability": "view",
      "type": "function"
    },
    {
      "inputs": [
        {
          "internalType": "address",
          "name": "to",
          "type": "address"
        }
      ],
      "name": "claim",
      "outputs": [],
      "stateMutability": "nonpayable",
      "type": "function"
    },
    {
      "inputs": [
        {
          "internalType": "uint256",
          "name": "pid",
          "type": "uint256"
        }
      ],
      "name": "claimed",
      "outputs": [
        {
          "internalType": "uint256",
          "name": "",
          "type": "uint256"
        }
      ],
      "stateMutability": "view",
      "type": "function"
    },
    {
      "inputs": [
        {
          "internalType": "uint256",
          "name": "pid",
          "type": "uint256"
        }
      ],
      "name": "close",
      "outputs": [],
      "stateMutability": "nonpayable",
      "type": "function"
    },
    {
      "inputs": [
        {
          "internalType": "uint256",
          "name": "pid",
          "type": "uint256"
        }
      ],
      "name": "closed",
      "outputs": [
        {
          "internalType": "uint256",
          "name": "",
          "type": "uint256"
        }
      ],
      "stateMutability": "view",
      "type": "function"
    },
    {
      "inputs": [
        {
          "internalType": "uint256",
          "name": "pid",
          "type": "uint256"
        }
      ],
      "name": "holder",
      "outputs": [
        {
          "internalType": "address",
          "name": "",
          "type": "address"
        }
      ],
      "stateMutability": "view",
      "type": "function"
    },
    {
      "inputs": [
        {
          "internalType": "address",
          "name": "holder_",
          "type": "address"
        }
      ],
      "name": "holderExists",
      "outputs": [
        {
          "internalType": "bool",
          "name": "",
          "type": "bool"
        }
      ],
      "stateMutability": "view",
      "type": "function"
    },
    {
      "inputs": [
        {
          "internalType": "address",
          "name": "",
          "type": "address"
        }
      ],
      "name": "holders",
      "outputs": [
        {
          "internalType": "uint256",
          "name": "pid",
          "type": "uint256"
        },
        {
          "internalType": "string",
          "name": "node",
          "type": "string"
        }
      ],
      "stateMutability": "view",
      "type": "function"
    },
    {
      "inputs": [
        {
          "internalType": "uint256",
          "name": "pid",
          "type": "uint256"
        }
      ],
      "name": "isClosed",
      "outputs": [
        {
          "internalType": "bool",
          "name": "",
          "type": "bool"
        }
      ],
      "stateMutability": "view",
      "type": "function"
    },
    {
      "inputs": [
        {
          "internalType": "address",
          "name": "holder_",
          "type": "address"
        }
      ],
      "name": "node",
      "outputs": [
        {
          "internalType": "string",
          "name": "",
          "type": "string"
        }
      ],
      "stateMutability": "view",
      "type": "function"
    },
    {
      "inputs": [
        {
          "internalType": "string",
          "name": "node_",
          "type": "string"
        }
      ],
      "name": "nodeExists",
      "outputs": [
        {
          "internalType": "bool",
          "name": "",
          "type": "bool"
        }
      ],
      "stateMutability": "view",
      "type": "function"
    },
    {
      "inputs": [],
      "name": "nodeList",
      "outputs": [
        {
          "internalType": "string[]",
          "name": "nodes_",
          "type": "string[]"
        }
      ],
      "stateMutability": "view",
      "type": "function"
    },
    {
      "inputs": [
        {
          "internalType": "string",
          "name": "",
          "type": "string"
        }
      ],
      "name": "nodeOwners",
      "outputs": [
        {
          "internalType": "address",
          "name": "",
          "type": "address"
        }
      ],
      "stateMutability": "view",
      "type": "function"
    },
    {
      "inputs": [
        {
          "internalType": "address",
          "name": "holder_",
          "type": "address"
        },
        {
          "internalType": "string",
          "name": "node_",
          "type": "string"
        }
      ],
      "name": "open",
      "outputs": [],
      "stateMutability": "nonpayable",
      "type": "function"
    },
    {
      "inputs": [
        {
          "internalType": "uint256",
          "name": "pid",
          "type": "uint256"
        }
      ],
      "name": "opened",
      "outputs": [
        {
          "internalType": "uint256",
          "name": "",
          "type": "uint256"
        }
      ],
      "stateMutability": "view",
      "type": "function"
    },
    {
      "inputs": [],
      "name": "opens",
      "outputs": [
        {
          "internalType": "uint256",
          "name": "",
          "type": "uint256"
        }
      ],
      "stateMutability": "view",
      "type": "function"
    },
    {
      "inputs": [],
      "name": "owner",
      "outputs": [
        {
          "internalType": "address",
          "name": "",
          "type": "address"
        }
      ],
      "stateMutability": "view",
      "type": "function"
    },
    {
      "inputs": [],
      "name": "poolLength",
      "outputs": [
        {
          "internalType": "uint256",
          "name": "",
          "type": "uint256"
        }
      ],
      "stateMutability": "view",
      "type": "function"
    },
    {
      "inputs": [
        {
          "internalType": "uint256",
          "name": "",
          "type": "uint256"
        }
      ],
      "name": "pools",
      "outputs": [
        {
          "internalType": "address",
          "name": "holder",
          "type": "address"
        },
        {
          "internalType": "uint256",
          "name": "open",
          "type": "uint256"
        },
        {
          "internalType": "uint256",
          "name": "close",
          "type": "uint256"
        },
        {
          "internalType": "uint256",
          "name": "lastUpdated",
          "type": "uint256"
        },
        {
          "internalType": "uint256",
          "name": "realised",
          "type": "uint256"
        },
        {
          "internalType": "uint256",
          "name": "claimed",
          "type": "uint256"
        }
      ],
      "stateMutability": "view",
      "type": "function"
    },
    {
      "inputs": [],
      "name": "renounceOwnership",
      "outputs": [],
      "stateMutability": "nonpayable",
      "type": "function"
    },
    {
      "inputs": [
        {
          "internalType": "uint256",
          "name": "pid",
          "type": "uint256"
        }
      ],
      "name": "reward",
      "outputs": [
        {
          "internalType": "uint256",
          "name": "",
          "type": "uint256"
        }
      ],
      "stateMutability": "view",
      "type": "function"
    },
    {
      "inputs": [],
      "name": "rewardPerBlock",
      "outputs": [
        {
          "internalType": "uint256",
          "name": "",
          "type": "uint256"
        }
      ],
      "stateMutability": "view",
      "type": "function"
    },
    {
      "inputs": [
        {
          "internalType": "address",
          "name": "to",
          "type": "address"
        },
        {
          "internalType": "string",
          "name": "node_",
          "type": "string"
        }
      ],
      "name": "setNode",
      "outputs": [],
      "stateMutability": "nonpayable",
      "type": "function"
    },
    {
      "inputs": [
        {
          "internalType": "uint256",
          "name": "rewardPerBlock_",
          "type": "uint256"
        }
      ],
      "name": "setRewardPerBlock",
      "outputs": [],
      "stateMutability": "nonpayable",
      "type": "function"
    },
    {
      "inputs": [],
      "name": "token",
      "outputs": [
        {
          "internalType": "contract IERC20",
          "name": "",
          "type": "address"
        }
      ],
      "stateMutability": "view",
      "type": "function"
    },
    {
      "inputs": [
        {
          "internalType": "address",
          "name": "newOwner",
          "type": "address"
        }
      ],
      "name": "transferOwnership",
      "outputs": [],
      "stateMutability": "nonpayable",
      "type": "function"
    },
    {
      "inputs": [
        {
          "internalType": "uint256",
          "name": "pid",
          "type": "uint256"
        }
      ],
      "name": "unrealised",
      "outputs": [
        {
          "internalType": "uint256",
          "name": "",
          "type": "uint256"
        }
      ],
      "stateMutability": "view",
      "type": "function"
    },
    {
      "inputs": [],
      "name": "updatePools",
      "outputs": [],
      "stateMutability": "nonpayable",
      "type": "function"
    },
    {
      "inputs": [
        {
          "internalType": "address",
          "name": "to",
          "type": "address"
        },
        {
          "internalType": "uint256",
          "name": "amount",
          "type": "uint256"
        }
      ],
      "name": "withdraw",
      "outputs": [],
      "stateMutability": "nonpayable",
      "type": "function"
    }
  ],
  "transactionHash": "0xade40615f4e453c6c4a38e1ceaf58877593c0bbfd169d720c5b36410634f254a",
  "args": [
    "0xF1658C608708172655A8e70a1624c29F956Ee63D",
    "0x2d2C8ab3A4006823260F862FF042b8cFDBcCE0C7",
    "44400000000000000000"
  ],
  "bytecode": "0x60806040523480156200001157600080fd5b50604051620020a9380380620020a983398101604081905262000034916200015a565b6200003f336200007d565b6200004a836200007d565b6200005581620000cd565b50600380546001600160a01b0319166001600160a01b039290921691909117905550620001ba565b600080546001600160a01b038381166001600160a01b0319831681178455604051919092169283917f8be0079c531659141344cd1fd0a4f28419497f9722a3daafe3b4186f6b6457e09190a35050565b806200011f5760405162461bcd60e51b815260206004820152601a60248201527f526577617264506f6f6c3a20696e76616c696420706172616d2e000000000000604482015260640160405180910390fd5b60018190556040518181527f22c0456177178fec69cb519ce05c0f0b39708187e616a82ceea49f84e19169cd9060200160405180910390a150565b6000806000606084860312156200016f578283fd5b83516200017c81620001a1565b60208501519093506200018f81620001a1565b80925050604084015190509250925092565b6001600160a01b0381168114620001b757600080fd5b50565b611edf80620001ca6000396000f3fe608060405234801561001057600080fd5b50600436106101ce5760003560e01c80639506834f11610104578063c96dc2a2116100a2578063f1ea5cd311610071578063f1ea5cd314610425578063f2fde38b14610438578063f3fef3a31461044b578063fc0c546a1461045e576101ce565b8063c96dc2a2146103e3578063d5c78a28146103ec578063dbe7e3bd146103ff578063e6a2016e14610412576101ce565b8063ac4afa38116100de578063ac4afa3814610353578063ba899a2e1461039d578063bb872b4a146103b0578063bffbe61c146103c3576101ce565b80639506834f1461031a5780639f9b10481461032d578063a9fb763c14610340576101ce565b806339db45f6116101715780635c959b621161014b5780635c959b62146102e5578063715018a6146102f85780638ae39cac146103005780638da5cb5b14610309576101ce565b806339db45f6146102b55780634c9b268c146102ca57806357770bee146102dd576101ce565b806313710969116101ad578063137109691461021257806318a5bbdc1461025e5780631b128f611461027f5780631e83409a146102a2576101ce565b8062c4c106146101d3578063081e3eda146101e85780630aebeb4e146101ff575b600080fd5b6101e66101e1366004611b58565b610471565b005b6004545b6040519081526020015b60405180910390f35b6101e661020d366004611c20565b61061d565b610246610220366004611bed565b80516020818301810180516005825292820191909301209152546001600160a01b031681565b6040516001600160a01b0390911681526020016101f6565b61027161026c366004611b3e565b610754565b6040516101f6929190611d5f565b61029261028d366004611bed565b6107f9565b60405190151581526020016101f6565b6101e66102b0366004611b3e565b610838565b6102bd610909565b6040516101f69190611c80565b6101ec6102d8366004611c20565b610a73565b6101e6610b31565b6101ec6102f3366004611c20565b610c21565b6101e6610c85565b6101ec60015481565b6000546001600160a01b0316610246565b6101e6610328366004611b58565b610cbb565b61029261033b366004611b3e565b611097565b6101ec61034e366004611c20565b6110ca565b610366610361366004611c20565b6110ff565b604080516001600160a01b0390971687526020870195909552938501929092526060840152608083015260a082015260c0016101f6565b6102466103ab366004611c20565b61114f565b6101e66103be366004611c20565b6111b9565b6103d66103d1366004611b3e565b6111f4565b6040516101f69190611ce0565b6101ec60025481565b6102926103fa366004611c20565b6112a3565b6101ec61040d366004611c20565b61130a565b6101ec610420366004611c20565b611346565b6101ec610433366004611c20565b6113c2565b6101e6610446366004611b3e565b611425565b6101e6610459366004611ba4565b6114bd565b600354610246906001600160a01b031681565b6000546001600160a01b031633146104a45760405162461bcd60e51b815260040161049b90611d2a565b60405180910390fd5b60008151116104f15760405162461bcd60e51b81526020600482015260196024820152782932bbb0b9322837b7b61d1034b73b30b634b2103737b2329760391b604482015260640161049b565b6104fa816107f9565b156105425760405162461bcd60e51b81526020600482015260186024820152772932bbb0b9322837b7b61d103737b2329032bc34b9ba399760411b604482015260640161049b565b61054b82611097565b6105975760405162461bcd60e51b815260206004820152601f60248201527f526577617264506f6f6c3a206e6f6e6578697374656e7420686f6c6465722e00604482015260640161049b565b6001600160a01b038216600090815260066020908152604090912082516105c692600190920191840190611a10565b506001600160a01b038216600081815260066020526040908190205490517f92f01d2ace5c0ed4c388e5fd7792f9d66dc73028d82f3b6ed4382359a8511d9390610611908590611ce0565b60405180910390a35050565b6000546001600160a01b031633146106475760405162461bcd60e51b815260040161049b90611d2a565b8061065181611545565b61066d5760405162461bcd60e51b815260040161049b90611cf3565b610676826112a3565b156106be5760405162461bcd60e51b81526020600482015260186024820152772932bbb0b9322837b7b61d103837b7b61031b637b9b2b21760411b604482015260640161049b565b43600483815481106106e057634e487b7160e01b600052603260045260246000fd5b906000526020600020906006020160020181905550610707826107028461114f565b611558565b506002805490600061071883611e16565b9190505550610725610b31565b60405182907fbf67515a38ee520223d32c1266d52101c30d936ed1f3e436c8caeb0a43cb06bf90600090a25050565b6006602052600090815260409020805460018201805491929161077690611e2d565b80601f01602080910402602001604051908101604052809291908181526020018280546107a290611e2d565b80156107ef5780601f106107c4576101008083540402835291602001916107ef565b820191906000526020600020905b8154815290600101906020018083116107d257829003601f168201915b5050505050905082565b6000806001600160a01b03166005836040516108159190611c64565b908152604051908190036020019020546001600160a01b0316141590505b919050565b61084133611097565b6108995760405162461bcd60e51b815260206004820152602360248201527f526577617264506f6f6c3a2063616c6c6572206973206e6f74206120686f6c6460448201526232b91760e91b606482015260840161049b565b336000908152600660205260409020546108b2816112a3565b156108fa5760405162461bcd60e51b81526020600482015260186024820152772932bbb0b9322837b7b61d103837b7b61031b637b9b2b21760411b604482015260640161049b565b6109048183611558565b505050565b606061091460045490565b67ffffffffffffffff81111561093a57634e487b7160e01b600052604160045260246000fd5b60405190808252806020026020018201604052801561096d57816020015b60608152602001906001900390816109585790505b50905060005b600454811015610a6f5760006109888261114f565b6001600160a01b03811660009081526006602052604090206001018054919250906109b290611e2d565b80601f01602080910402602001604051908101604052809291908181526020018280546109de90611e2d565b8015610a2b5780601f10610a0057610100808354040283529160200191610a2b565b820191906000526020600020905b815481529060010190602001808311610a0e57829003601f168201915b5050505050838381518110610a5057634e487b7160e01b600052603260045260246000fd5b6020026020010181905250508080610a6790611e62565b915050610973565b5090565b600080610a7f836112a3565b610a895743610abd565b60048381548110610aaa57634e487b7160e01b600052603260045260246000fd5b9060005260206000209060060201600201545b90506000610b0660048581548110610ae557634e487b7160e01b600052603260045260246000fd5b906000526020600020906006020160030154836116e790919063ffffffff16565b9050610b29600254610b23836001546116f390919063ffffffff16565b906116ff565b949350505050565b60005b600454811015610c1e57610b47816112a3565b15610b5157610c0c565b610b9e610b5d82610a73565b60048381548110610b7e57634e487b7160e01b600052603260045260246000fd5b90600052602060002090600602016004015461170b90919063ffffffff16565b60048281548110610bbf57634e487b7160e01b600052603260045260246000fd5b9060005260206000209060060201600401819055504360048281548110610bf657634e487b7160e01b600052603260045260246000fd5b9060005260206000209060060201600301819055505b80610c1681611e62565b915050610b34565b50565b600081610c2d81611545565b610c495760405162461bcd60e51b815260040161049b90611cf3565b60048381548110610c6a57634e487b7160e01b600052603260045260246000fd5b90600052602060002090600602016002015491505b50919050565b6000546001600160a01b03163314610caf5760405162461bcd60e51b815260040161049b90611d2a565b610cb96000611717565b565b6000546001600160a01b03163314610ce55760405162461bcd60e51b815260040161049b90611d2a565b6001600160a01b038216610d3b5760405162461bcd60e51b815260206004820152601b60248201527f526577617264506f6f6c3a20696e76616c696420686f6c6465722e0000000000604482015260640161049b565b6000815111610d885760405162461bcd60e51b81526020600482015260196024820152782932bbb0b9322837b7b61d1034b73b30b634b2103737b2329760391b604482015260640161049b565b610d9182611097565b15610dde5760405162461bcd60e51b815260206004820152601a60248201527f526577617264506f6f6c3a20686f6c646572206578697374732e000000000000604482015260640161049b565b610de7816107f9565b15610e2f5760405162461bcd60e51b81526020600482015260186024820152772932bbb0b9322837b7b61d103737b2329032bc34b9ba399760411b604482015260640161049b565b81600582604051610e409190611c64565b90815260405190819003602001902080546001600160a01b03929092166001600160a01b03199092169190911790556000610e7a60045490565b60408051808201825282815260208082018681526001600160a01b0388166000908152600683529390932082518155925180519495509193610ec29260018501920190611a10565b50506040805160c0810182526001600160a01b03868116825243602083018181526000948401858152606085019283526080850186815260a086018781526004805460018101825590895296517f8a35acfbc15ff81a39ae7d344fd709f28e8600b4aa8c65c6b64bfe7fe36bd19b600690980297880180546001600160a01b031916919097161790955591517f8a35acfbc15ff81a39ae7d344fd709f28e8600b4aa8c65c6b64bfe7fe36bd19c860155517f8a35acfbc15ff81a39ae7d344fd709f28e8600b4aa8c65c6b64bfe7fe36bd19d85015590517f8a35acfbc15ff81a39ae7d344fd709f28e8600b4aa8c65c6b64bfe7fe36bd19e840155517f8a35acfbc15ff81a39ae7d344fd709f28e8600b4aa8c65c6b64bfe7fe36bd19f830155517f8a35acfbc15ff81a39ae7d344fd709f28e8600b4aa8c65c6b64bfe7fe36bd1a0909101556002805492509061101883611e62565b9190505550611025610b31565b60405181907f9648cf7f2eb86b564ae3c4a466bc03e87267933667490eb8737a5a3f2a9b284d90600090a2826001600160a01b0316817f92f01d2ace5c0ed4c388e5fd7792f9d66dc73028d82f3b6ed4382359a8511d938460405161108a9190611ce0565b60405180910390a3505050565b6001600160a01b038116600090815260066020526040812060010180548291906110c090611e2d565b9050119050919050565b60006110f96110d883610a73565b60048481548110610b7e57634e487b7160e01b600052603260045260246000fd5b92915050565b6004818154811061110f57600080fd5b60009182526020909120600690910201805460018201546002830154600384015460048501546005909501546001600160a01b0390941695509193909286565b60008161115b81611545565b6111775760405162461bcd60e51b815260040161049b90611cf3565b6004838154811061119857634e487b7160e01b600052603260045260246000fd5b60009182526020909120600690910201546001600160a01b03169392505050565b6000546001600160a01b031633146111e35760405162461bcd60e51b815260040161049b90611d2a565b6111eb610b31565b610c1e81611767565b6001600160a01b038116600090815260066020526040902060010180546060919061121e90611e2d565b80601f016020809104026020016040519081016040528092919081815260200182805461124a90611e2d565b80156112975780601f1061126c57610100808354040283529160200191611297565b820191906000526020600020905b81548152906001019060200180831161127a57829003601f168201915b50505050509050919050565b6000816112af81611545565b6112cb5760405162461bcd60e51b815260040161049b90611cf3565b600483815481106112ec57634e487b7160e01b600052603260045260246000fd5b90600052602060002090600602016002015460001415915050919050565b60006004828154811061132d57634e487b7160e01b600052603260045260246000fd5b9060005260206000209060060201600501549050919050565b60008161135281611545565b61136e5760405162461bcd60e51b815260040161049b90611cf3565b6113bb61137a846110ca565b6004858154811061139b57634e487b7160e01b600052603260045260246000fd5b90600052602060002090600602016005015461170b90919063ffffffff16565b9392505050565b6000816113ce81611545565b6113ea5760405162461bcd60e51b815260040161049b90611cf3565b6004838154811061140b57634e487b7160e01b600052603260045260246000fd5b906000526020600020906006020160010154915050919050565b6000546001600160a01b0316331461144f5760405162461bcd60e51b815260040161049b90611d2a565b6001600160a01b0381166114b45760405162461bcd60e51b815260206004820152602660248201527f4f776e61626c653a206e6577206f776e657220697320746865207a65726f206160448201526564647265737360d01b606482015260840161049b565b610c1e81611717565b6000546001600160a01b031633146114e75760405162461bcd60e51b815260040161049b90611d2a565b6003546114fe906001600160a01b031683836117ef565b816001600160a01b03167f7fcf532c15f0a6db0bd6d0e038bea71d30d808c7d98cb3bf7268a95bf5081b658260405161153991815260200190565b60405180910390a25050565b600061155060045490565b909110919050565b6000611563836110ca565b9050600081116115b55760405162461bcd60e51b815260206004820152601f60248201527f526577617264506f6f6c3a206e6f2072657761726420746f20636c61696d2e00604482015260640161049b565b6115da816004858154811061139b57634e487b7160e01b600052603260045260246000fd5b600484815481106115fb57634e487b7160e01b600052603260045260246000fd5b906000526020600020906006020160050181905550436004848154811061163257634e487b7160e01b600052603260045260246000fd5b90600052602060002090600602016003018190555060006004848154811061166a57634e487b7160e01b600052603260045260246000fd5b6000918252602090912060046006909202010155600354611695906001600160a01b031683836117ef565b61169e8361114f565b6001600160a01b0316837f3ed1528b0fdc7c5207c1bf935e34a667e13656b9ed165260c522be0bc544f303836040516116d991815260200190565b60405180910390a392915050565b60006113bb8284611dcf565b60006113bb8284611db0565b60006113bb8284611d90565b60006113bb8284611d78565b600080546001600160a01b038381166001600160a01b0319831681178455604051919092169283917f8be0079c531659141344cd1fd0a4f28419497f9722a3daafe3b4186f6b6457e09190a35050565b806117b45760405162461bcd60e51b815260206004820152601a60248201527f526577617264506f6f6c3a20696e76616c696420706172616d2e000000000000604482015260640161049b565b60018190556040518181527f22c0456177178fec69cb519ce05c0f0b39708187e616a82ceea49f84e19169cd9060200160405180910390a150565b604080516001600160a01b03848116602483015260448083018590528351808403909101815260649092018352602080830180516001600160e01b031663a9059cbb60e01b17905283518085019094528084527f5361666545524332303a206c6f772d6c6576656c2063616c6c206661696c6564908401526109049286929160009161187f9185169084906118fc565b805190915015610904578080602001905181019061189d9190611bcd565b6109045760405162461bcd60e51b815260206004820152602a60248201527f5361666545524332303a204552433230206f7065726174696f6e20646964206e6044820152691bdd081cdd58d8d9595960b21b606482015260840161049b565b6060610b298484600085856001600160a01b0385163b61195e5760405162461bcd60e51b815260206004820152601d60248201527f416464726573733a2063616c6c20746f206e6f6e2d636f6e7472616374000000604482015260640161049b565b600080866001600160a01b0316858760405161197a9190611c64565b60006040518083038185875af1925050503d80600081146119b7576040519150601f19603f3d011682016040523d82523d6000602084013e6119bc565b606091505b50915091506119cc8282866119d7565b979650505050505050565b606083156119e65750816113bb565b8251156119f65782518084602001fd5b8160405162461bcd60e51b815260040161049b9190611ce0565b828054611a1c90611e2d565b90600052602060002090601f016020900481019282611a3e5760008555611a84565b82601f10611a5757805160ff1916838001178555611a84565b82800160010185558215611a84579182015b82811115611a84578251825591602001919060010190611a69565b50610a6f9291505b80821115610a6f5760008155600101611a8c565b80356001600160a01b038116811461083357600080fd5b600082601f830112611ac7578081fd5b813567ffffffffffffffff80821115611ae257611ae2611e93565b604051601f8301601f19908116603f01168101908282118183101715611b0a57611b0a611e93565b81604052838152866020858801011115611b22578485fd5b8360208701602083013792830160200193909352509392505050565b600060208284031215611b4f578081fd5b6113bb82611aa0565b60008060408385031215611b6a578081fd5b611b7383611aa0565b9150602083013567ffffffffffffffff811115611b8e578182fd5b611b9a85828601611ab7565b9150509250929050565b60008060408385031215611bb6578182fd5b611bbf83611aa0565b946020939093013593505050565b600060208284031215611bde578081fd5b815180151581146113bb578182fd5b600060208284031215611bfe578081fd5b813567ffffffffffffffff811115611c14578182fd5b610b2984828501611ab7565b600060208284031215611c31578081fd5b5035919050565b60008151808452611c50816020860160208601611de6565b601f01601f19169290920160200192915050565b60008251611c76818460208701611de6565b9190910192915050565b6000602080830181845280855180835260408601915060408482028701019250838701855b82811015611cd357603f19888603018452611cc1858351611c38565b94509285019290850190600101611ca5565b5092979650505050505050565b6000602082526113bb6020830184611c38565b6020808252601d908201527f526577617264506f6f6c3a206e6f6e6578697374656e7420706f6f6c2e000000604082015260600190565b6020808252818101527f4f776e61626c653a2063616c6c6572206973206e6f7420746865206f776e6572604082015260600190565b600083825260406020830152610b296040830184611c38565b60008219821115611d8b57611d8b611e7d565b500190565b600082611dab57634e487b7160e01b81526012600452602481fd5b500490565b6000816000190483118215151615611dca57611dca611e7d565b500290565b600082821015611de157611de1611e7d565b500390565b60005b83811015611e01578181015183820152602001611de9565b83811115611e10576000848401525b50505050565b600081611e2557611e25611e7d565b506000190190565b600281046001821680611e4157607f821691505b60208210811415610c7f57634e487b7160e01b600052602260045260246000fd5b6000600019821415611e7657611e76611e7d565b5060010190565b634e487b7160e01b600052601160045260246000fd5b634e487b7160e01b600052604160045260246000fdfea2646970667358221220ee66a6ecdb0071cb2f8843dad1cb6182d316d0d4663984981e7441cc37bca78564736f6c63430008020033"
}